:020000040800F2
:10000000000001208D090008DD090008DD09000855
:10001000DD090008DD090008DD0900080000000016
:10002000000000000000000000000000DD090008E2
:10003000DD09000800000000DD090008DD090008F6
:1000400000000000DD090008DD090008DD090008E6
:10005000DD090008DD090008DD090008DD090008E8
:10006000DD090008DD090008DD09000800000000C6
:100070000000000000000000000000000000000080
:100080000000000000000000DD0900080000000082
:10009000000000000000000000000000DD09000872
:1000A000DD090008DD090008DD090008DD09000898
:1000B000DD090008DD09000800000000DD09000876
:1000C000DD090008DD090008DD090008DD09000878
:1000D000DD09000800000000000000000000000032
:1000E000DD090008DD090008DD0900080000000046
:1000F0000000000000000000000000000000000000
:1001000000000000DD09000800000000DD09000813
:1001100000000000000000000000000000000000DF
:1001200000000000000000000000000000000000CF
:1001300000000000000000000000000000000000BF
:10014000000000000000000000000000DD090008C1
:10015000000000000000000000000000000000009F
:10016000DD090008DD0900080000000000000000B3
:10017000000000000000000000000000000000007F
:1001800000000000DD090008000000000000000081
:04019000DD0900087D
:1001940010B5054C237833B9044B13B10448AFF3BD
:1001A40000800123237010BD8C0400200000000097
:1001B400440B000808B5034B1BB103490348AFF3D4
:1001C400008008BD0000000090040020440B0008DB
:1001D40080B483B000AF7860084611461A460346DF
:1001E400FB700B46BB7013467B70204B1A6B7B78FD
:1001F400012101FA03F31D4913430B63BB78002B60
:1002040016D07B681A68FB785B00012101FA03F3BE
:100214001A437B681A607B681A68FB785B000133B9
:10022400012101FA03F3DB431A407B681A6016E0EC
:100234007B681A68FB785B00012101FA03F3DB4356
:100244001A407B681A607B681A68FB785B0001338C
:10025400012101FA03F3DB431A407B681A6000BFF3
:100264000C37BD465DF8047B704700BF0038024080
:1002740080B483B000AF78600B46FB701346BB704C
:100284007B681A68FB785B00012101FA03F31340D1
:10029400002B18D0BB78002B09D07B685A69FB78F7
:1002A400012101FA03F31A437B685A6109E07B6870
:1002B4005A69FB78012101FA03F3DB431A407B6896
:1002C4005A61002300E0012318460C37BD465DF84F
:1002D400047B704780B485B000AF78600B46FB7038
:1002E4007B681A68FB785B00012101FA03F3134071
:1002F400002B24D17B68DA68FB785B00012101FACA
:1003040003F31A437B68DA607B68DA68FB785B0086
:100314000133012101FA03F3DB431A407B68DA60FD
:100324007B681B69FA78012101FA02F21340FB6031
:10033400FB68002B01D1002301E00123FFE71846ED
:100344001437BD465DF8047B7047000080B584B067
:1003540000AF0823FB6009E0FB68D9B20023012247
:100364001E48FFF735FFFB680133FB60FB680D2B6C
:10037400F2DD002301220F211848FFF729FF002393
:10038400BB600DE0164ABB6813441B78BB70B97898
:10039400002300221148FFF71BFFBB680133BB6039
:1003A4000422BB689342EDDB00237B600DE00D4A21
:1003B4007B6813441B78FB70F978002301220748FB
:1003C400FFF706FF7B6801337B6003227B6893425F
:1003D400EDDB00BF1037BD4680BD00BF000002400A
:1003E400000000200400002080B584B000AF00238A
:1003F400FB6052E02D4AFB6813441B78FB7000231A
:10040400BB600BE0294ABB6813441B7801221946E0
:100414002748FFF72DFFBB680133BB600322BB688D
:100424009342EFDBFB78002219462148FFF720FFB7
:1004340000237B602AE01F4A7B6813441B78BB704F
:10044400BB7819461A48FFF745FF03461A461A4B6C
:100454001A70194B1B78002B15D100BFBB781946B5
:100464001348FFF737FF0346002BF7D013497A6888
:1004740013465B001344CA18FB6813441A78104BE4
:100484001A7000F02BF87B6801337B6004227B68D0
:100494009342D0DBFB680133FB600322FB68934289
:1004A400A8DB00BF1037BD4680BD00BF040000209C
:1004B4000000024000000020A904002008000020E1
:1004C400A804002080B400AF034B1B781846BD4637
:1004D4005DF8047B704700BFA804002080B596B087
:1004E40000AFFFF7EFFF0346FB71FB79092B00F226
:1004F400898101A252F823F0250500086B05000844
:10050400B3050008FB050008430600088B06000835
:10051400D50600081F07000869070008B30700088C
:1005240008237B650CE07B6DD9B27B6D083BA14A47
:10053400D35C1A46A048FFF79BFE7B6D01337B65B5
:100544007B6D0D2BEFDD01220F219B48FFF790FE01
:1005540000233B6502E03B6D01333B653B6D974AED
:100564009342F8DD4EE10823FB640DE0FB6CD9B245
:10057400FB6C083B8F4A1344DB791A468E48FFF71D
:1005840077FEFB6C0133FB64FB6C0D2BEEDD01226B
:100594000F218948FFF76CFE0023BB6402E0BB6CAB
:1005A4000133BB64BB6C854A9342F8DD2AE108231E
:1005B4007B640DE07B6CD9B27B6C083B7D4A1344B1
:1005C4009B7B1A467C48FFF753FE7B6C01337B64AC
:1005D4007B6C0D2BEEDD00220F217748FFF748FEE0
:1005E40000233B6402E03B6C01333B643B6C734A85
:1005F4009342F8DD06E10823FB630DE0FB6BD9B2FF
:10060400FB6B083B6B4A13445B7D1A466A48FFF751
:100614002FFEFB6B0133FB63FB6B0D2BEEDD002226
:100624000F216548FFF724FE0023BB6302E0BB6B88
:100634000133BB63BB6B614A9342F8DDE2E00823FC
:100644007B630DE07B6BD9B27B6B083B594A134447
:100654001B7F1A465848FFF70BFE7B6B01337B6305
:100664007B6B0D2BEEDD00220F215348FFF700FEBC
:1006740000233B6302E03B6B01333B633B6B4F4A1C
:100684009342F8DDBEE00823FB620EE0FB6AD9B2B8
:10069400FB6A083B474A134493F823301A464648FA
:1006A400FFF7E6FDFB6A0133FB62FB6A0D2BEDDD10
:1006B40000220F214048FFF7DBFD0023BB6202E06C
:1006C400BB6A0133BB62BB6A3C4A9342F8DD99E0E2
:1006D40008237B620EE07B6AD9B27B6A083B354A09
:1006E400134493F82A301A463348FFF7C1FD7B6A56
:1006F40001337B627B6A0D2BEDDD00220F212E4836
:10070400FFF7B6FD00233B6202E03B6A01333B6224
:100714003B6A2A4A9342F8DD74E00823FB610EE049
:10072400FB69D9B2FB69083B224A134493F8313080
:100734001A462148FFF79CFDFB690133FB61FB6905
:100744000D2BEDDD01220F211B48FFF791FD002346
:10075400BB6102E0BB690133BB61BB69174A9342C9
:10076400F8DD4FE008237B610EE07B69D9B27B6939
:10077400083B104A134493F838301A460E48FFF7E2
:1007840077FD7B6901337B617B690D2BEDDD0022F5
:100794000F210948FFF76CFD00233B6102E03B6930
:1007A40001333B613B69054A9342F8DD2AE00823A3
:1007B400FB6014E014000020000002401FA10700A9
:1007C400FB68D9B2FB68083B104A134493F83F30E6
:1007D4001A460F48FFF74CFDFB680133FB60FB68CA
:1007E4000D2BEDDD00220F210948FFF741FD002309
:1007F400BB6002E0BB680133BB60BB68054A93423F
:10080400F8DD00BF00BF5837BD4680BD140000208E
:10081400000002401FA1070080B500AFFFF796FD5E
:10082400FFF7E2FDFCE7000080B500AF164BD3F8FC
:100834008830154A43F47003C2F88830134B1B68A0
:10084400124A43F001031360104B00229A600F4BCD
:100854001B680E4A23F0847323F4803313600B4B1C
:100864000B4A5A60094B1B68084A23F4802313601F
:10087400064B0022DA6000F00DF8034B4FF00062E3
:100884009A6000BF80BD00BF00ED00E00038024068
:100894001030002480B483B000AF00237B600023B9
:1008A4003B60354B1B68344A43F480331360324B4E
:1008B4001B6803F400333B607B6801337B603B6857
:1008C400002B03D17B68B3F5A04FF0D12A4B1B68F2
:1008D40003F40033002B02D001233B6001E000232A
:1008E4003B603B68012B40D1234B1B6C224A43F0F5
:1008F40080531364214B1B68204A43F44043136024
:100904001D4B1D4A9B6893601B4B1B4A9B6893605D
:10091400194B9B68184A43F480539360164B184A4A
:100924005A60154B1B68144A43F08073136000BF70
:10093400114B1B6803F00073002BF9D0114B40F2EC
:1009440002721A600C4B9B680B4A23F003039360FA
:10095400094B9B68084A43F00203936000BF064BAF
:100964009B6803F00C03082BF9D100BF0C37BD467C
:100974005DF8047B704700BF0038024000700040FF
:1009840019544107003C02400D4885460D480E4964
:100994000E4A002302E0D458C4500433C4188C42D5
:1009A400F9D30B4A0B4C002301E013600432A2423A
:1009B400FBD3FFF739FF00F011F8FFF72DFFFEE737
:1009C40000000120000000208C0400206C0B0008B3
:1009D4008C040020D0040020FEE7000070B50D4E0A
:1009E4000D4D761BB61006D00024013455F8043B97
:1009F4009847A642F9D1094E094D761B00F0A0F89C
:100A0400B61006D00024013455F8043B9847A6429A
:100A1400F9D170BD600B0008600B0008680B00087A
:100A2400600B0008024B13B1024800F005B8704790
:100A340000000000490A0008002301461A4618462F
:100A440000F01EB838B50A4C0A4D641BA4100AD035
:100A540004F18043013B05EB8305013C55F804395F
:100A64009847002CF9D1BDE8384000F06FB800BFBA
:100A74006C0B0008680B0008704700BF704700BF8C
:100A84002DE9F8432B4D0646286898460F469146B3
:100A9400FFF7F2FF284B1C68D4F84831002B3DD0F7
:100AA4005A681F2A0DDC02F1010C16BB0232C3F88E
:100AB40004C0286843F82270FFF7E0FF0020BDE877
:100AC400F8831E4B7BB34FF4C870AFF3008003462A
:100AD40048B3D4F848210021C0E900214FF0010CAB
:100AE400C4F848010A46C0F88811C0F88C11002ED9
:100AF400DCD003EB82010124C1F88890D3F888018B
:100B040094402043022EC3F88801C1F80881CDD156
:100B1400D3F88C110C43C3F88C41C7E704F5A673D2
:100B2400C4F84831BCE72868FFF7A8FF4FF0FF304E
:100B3400C5E700BF880400205C0B0008000000002B
:100B4400F8B500BFF8BC08BC9E467047F8B500BFB6
:080B5400F8BC08BC9E46704786
:040B5C006000002015
:080B6000290A0008B901000890
:040B680095010008EB
:100B6C000102030405060700010203040506070839
:100B7C00092A00230000000000000101000001010F
:100B8C000101000001000001000000000001010053
:100B9C000100000101000000010000010000000143
:100BAC000000000000000000010101010000000035
:100BBC000000000000000001000000000000000028
:100BCC00000000004C030020B40300201C04002093
:100BDC000000000000000000000000000000000009
:100BEC0000000000000000000000000000000000F9
:100BFC0000000000000000000000000000000000E9
:100C0C0000000000000000000000000000000000D8
:100C1C0000000000000000000000000000000000C8
:100C2C0000000000000000000000000000000000B8
:100C3C0000000000000000000000000000000000A8
:100C4C000000000000000000000000000000000098
:100C5C000000000000000000000000000000000088
:100C6C000000000000000000010000000000000077
:100C7C000E33CDAB34126DE6ECDE05000B0000003C
:100C8C000000000000000000000000000000000058
:100C9C000000000000000000000000000000000048
:100CAC000000000000000000000000000000000038
:100CBC000000000000000000000000000000000028
:0C0FEC000000000000000000AC04002029
:040000050800098D59
:00000001FF
